{
  "_format": "hh3-artifact-1",
  "contractName": "DolfinAccountFactory",
  "sourceName": "contracts/dolfin/DolfinAccountFactory.sol",
  "abi": [
    {
      "inputs": [
        {
          "internalType": "contract IEntryPoint",
          "name": "entryPoint",
          "type": "address"
        },
        {
          "internalType": "address",
          "name": "_policyManager",
          "type": "address"
        }
      ],
      "stateMutability": "nonpayable",
      "type": "constructor"
    },
    {
      "anonymous": false,
      "inputs": [
        {
          "indexed": true,
          "internalType": "address",
          "name": "account",
          "type": "address"
        },
        {
          "indexed": true,
          "internalType": "address",
          "name": "owner",
          "type": "address"
        },
        {
          "indexed": false,
          "internalType": "uint256",
          "name": "salt",
          "type": "uint256"
        }
      ],
      "name": "AccountCreated",
      "type": "event"
    },
    {
      "inputs": [],
      "name": "accountImplementation",
      "outputs": [
        {
          "internalType": "contract DolfinSmartAccount",
          "name": "",
          "type": "address"
        }
      ],
      "stateMutability": "view",
      "type": "function"
    },
    {
      "inputs": [
        {
          "internalType": "address",
          "name": "owner",
          "type": "address"
        },
        {
          "internalType": "uint256",
          "name": "salt",
          "type": "uint256"
        }
      ],
      "name": "createAccount",
      "outputs": [
        {
          "internalType": "contract DolfinSmartAccount",
          "name": "",
          "type": "address"
        }
      ],
      "stateMutability": "nonpayable",
      "type": "function"
    },
    {
      "inputs": [
        {
          "internalType": "address",
          "name": "owner",
          "type": "address"
        },
        {
          "internalType": "uint256",
          "name": "salt",
          "type": "uint256"
        }
      ],
      "name": "getAddress",
      "outputs": [
        {
          "internalType": "address",
          "name": "",
          "type": "address"
        }
      ],
      "stateMutability": "view",
      "type": "function"
    },
    {
      "inputs": [],
      "name": "policyManager",
      "outputs": [
        {
          "internalType": "address",
          "name": "",
          "type": "address"
        }
      ],
      "stateMutability": "view",
      "type": "function"
    }
  ],
  "bytecode": "0x60c0346100fa57601f613a9d38819003918201601f19168301916001600160401b038311848410176100e65780849260409485528339810103126100fa5780516001600160a01b03811691908290036100fa5760200151906001600160a01b03821682036100fa57604051906132b98083016001600160401b038111848210176100e65760209284926107e4843981520301905ff080156100db5760805260a0526040516106e590816100ff823960805181818160e601528181610243015261037e015260a051818181605d015281816101e101526103250152f35b6040513d5f823e3d90fd5b634e487b7160e01b5f52604160045260245ffd5b5f80fdfe6080806040526004361015610012575f80fd5b5f3560e01c90816311464fbe146100d4575080635fbfb9cf146100bb5780638cb84e18146100905763ab3dbf3b14610048575f80fd5b3461008c575f36600319011261008c576040517f00000000000000000000000000000000000000000000000000000000000000006001600160a01b03168152602090f35b5f80fd5b3461008c5760206100a96100a336610115565b906102d5565b6040516001600160a01b039091168152f35b3461008c5760206100a96100ce36610115565b906101ad565b3461008c575f36600319011261008c577f00000000000000000000000000000000000000000000000000000000000000006001600160a01b03168152602090f35b604090600319011261008c576004356001600160a01b038116810361008c579060243590565b90601f8019910116810190811067ffffffffffffffff82111761015d57604052565b634e487b7160e01b5f52604160045260245ffd5b6001600160a01b0390911681526040602080830182905283519183018290526060938291018484015e5f828201840152601f01601f1916010190565b906101b881836102d5565b803b6102c6575060405163485cc95560e01b60208201526001600160a01b0383811660248301527f000000000000000000000000000000000000000000000000000000000000000016604480830191909152815261021760648261013b565b6040516102a28082019082821067ffffffffffffffff83111761015d57849383926102719261040e85397f00000000000000000000000000000000000000000000000000000000000000006001600160a01b031690610171565b03905ff59182156102bb576040519182526001600160a01b0392831692169082907f33310a89c32d8cc00057ad6ef6274d2f8fe22389a992cf89983e09fc84f6cfff90602090a390565b6040513d5f823e3d90fd5b6001600160a01b031692915050565b90600b916103566103e36102a2610364604051946102f6602084018761013b565b828652602086019261040e843960405163485cc95560e01b60208201526001600160a01b0391821660248201527f000000000000000000000000000000000000000000000000000000000000000090911660448201529384906064820190565b03601f19810185528461013b565b6020604051936103b2856103a48482019360018060a01b037f00000000000000000000000000000000000000000000000000000000000000001685610171565b03601f19810187528661013b565b60405194859383850197518091895e840190838201905f8252519283915e01015f815203601f19810183528261013b565b5190209060405191604083015260208201523081520160ff8153605590206001600160a01b03169056fe60806040526102a2803803806100148161016e565b9283398101604082820312610156578151916001600160a01b03831690818403610156576020810151906001600160401b038211610156570182601f82011215610156578051906001600160401b03821161015a5761007c601f8301601f191660200161016e565b938285526020838301011161015657815f9260208093018387015e8401015281511561014757823b15610135577f360894a13ba1a3210667c828492db98dca3e2076cc3735a920a3ca505d382bbc80546001600160a01b031916821790557fbc7cd75a20ee27fd9adebab32041f755214dbc6bffa90cc0225b39da2e5c2d3b5f80a280511561011e5761010e91610193565b505b604051608290816102208239f35b505034156101105763b398979f60e01b5f5260045ffd5b634c9c8ce360e01b5f5260045260245ffd5b6330a289cf60e21b5f5260045ffd5b5f80fd5b634e487b7160e01b5f52604160045260245ffd5b6040519190601f01601f191682016001600160401b0381118382101761015a57604052565b905f8091602081519101845af4808061020c575b156101c75750506040513d81523d5f602083013e60203d82010160405290565b156101ec57639996b31560e01b5f9081526001600160a01b0391909116600452602490fd5b3d156101fd576040513d5f823e3d90fd5b63d6bda27560e01b5f5260045ffd5b503d1515806101a75750813b15156101a756fe60806040527f360894a13ba1a3210667c828492db98dca3e2076cc3735a920a3ca505d382bbc545f9081906001600160a01b0316368280378136915af43d5f803e156048573d5ff35b3d5ffdfea2646970667358221220685763c83dd31b9a7c3c2214d03ddc155c5bd97398284d2a9e77816132fb395664736f6c634300081c0033a264697066735822122057d9f058f7795ff6c879c7e8d3e300dbf91f9bed10b488ecb87035460d6bbe6164736f6c634300081c00336101a08060405234610251576020816132b980380380916100208285610255565b83398101031261025157516001600160a01b0381168103610251576040519061004a604083610255565b601282526020820171111bdb199a5b94db585c9d1058d8dbdd5b9d60721b815260405192610079604085610255565b600184526020840192603160f81b84523060805260a0525f5160206132995f395f51905f525460ff8160401c16610242576002600160401b03196001600160401b038216016101ec575b506100cd8161028c565b610160526100da84610427565b6101805251902091826101205251902080610140524660e0526040519060208201927f8b73c3c69bb8fe3d512ecc4cf759cc79239f7b179b0ffacaa9a75d522b39400f8452604083015260608201524660808201523060a082015260a0815261014460c082610255565b51902060c0523061010052604051612d399081610560823960805181818161150c01526115b1015260a0518181816102730152818161063c015281816108460152818161177701528181611c58015281816120120152818161260b01526126d3015260c05181612a72015260e05181612b2f01526101005181612a3c01526101205181612ac101526101405181612ae701526101605181611417015261018051816114410152f35b6001600160401b0319166001600160401b039081175f5160206132995f395f51905f52556040519081527fc7f505b2f371ae2175ee4913f4499e1f2633a7b5936321eed1cdaeb6115181d290602090a15f6100c3565b63f92ee8a960e01b5f5260045ffd5b5f80fd5b601f909101601f19168101906001600160401b0382119082101761027857604052565b634e487b7160e01b5f52604160045260245ffd5b908151602081105f14610306575090601f8151116102c65760208151910151602082106102b7571790565b5f198260200360031b1b161790565b604460209160405192839163305a27a960e01b83528160048401528051918291826024860152018484015e5f828201840152601f01601f19168101030190fd5b6001600160401b03811161027857600154600181811c9116801561041d575b602082101461040957601f81116103d6575b50602092601f821160011461037557928192935f9261036a575b50508160011b915f199060031b1c19161760015560ff90565b015190505f80610351565b601f1982169360015f52805f20915f5b8681106103be57508360019596106103a6575b505050811b0160015560ff90565b01515f1960f88460031b161c191690555f8080610398565b91926020600181928685015181550194019201610385565b60015f52601f60205f20910160051c810190601f830160051c015b8181106103fe5750610337565b5f81556001016103f1565b634e487b7160e01b5f52602260045260245ffd5b90607f1690610325565b908151602081105f14610452575090601f8151116102c65760208151910151602082106102b7571790565b6001600160401b03811161027857600254600181811c91168015610555575b602082101461040957601f8111610522575b50602092601f82116001146104c157928192935f926104b6575b50508160011b915f199060031b1c19161760025560ff90565b015190505f8061049d565b601f1982169360025f52805f20915f5b86811061050a57508360019596106104f2575b505050811b0160025560ff90565b01515f1960f88460031b161c191690555f80806104e4565b919260206001819286850151815501940192016104d1565b60025f52601f60205f20910160051c810190601f830160051c015b81811061054a5750610483565b5f815560010161053d565b90607f169061047156fe608080604052600436101561001c575b50361561001a575f80fd5b005b5f905f3560e01c90816301ffc9a714612167575080630bb3186b14612138578063150b7a02146120e257806319822f7c14611fdc578063285f8b4f14611f82578063332f646514611f0557806334fcd5be14611e03578063485cc95514611ccb5780634a58db1914611c4a5780634c6a2ff2146117de5780634d44560d146117455780634f1ef2861461156057806352d1902d146114f957806384b0196e146113fd57806384f4fc6a14611388578063892b4881146112c65780638da5cb5b1461129f5780638f39d13a14610b5257806399d8591914610aff5780639d955f2514610a69578063a061e5ad14610953578063ab3dbf3b1461092a578063ad3cb1cc146108dd578063adde41e114610875578063b0d691fe14610830578063b61d27f614610799578063b7b8d6041461073c578063ba7b014514610716578063bc197c811461067d578063c399ec881461060f578063c4d66de8146104e4578063ce4fb63e146102f8578063d087d2881461023f578063da246966146102005763f23a6e610361000f57346101fd5760a03660031901126101fd576101be6121d2565b506101c76121e8565b506084356001600160401b0381116101fb576101e79036906004016121fe565b505060405163f23a6e6160e01b8152602090f35b505b80fd5b50346101fd5760203660031901126101fd5760209060ff906040906001600160a01b0361022b6121d2565b168152600684522054166040519015158152f35b50346101fd57806003193601126101fd57604051631aab3f0d60e11b815230600482015260248101829052906020826044817f00000000000000000000000000000000000000000000000000000000000000006001600160a01b03165afa9081156102ec57906102b5575b602090604051908152f35b506020813d6020116102e4575b816102cf602093836122b4565b810103126102e057602090516102aa565b5f80fd5b3d91506102c2565b604051903d90823e3d90fd5b50346101fd5760803660031901126101fd576103126121d2565b61031a61225b565b906044356064356001600160401b0381116104e05761033d9036906004016121fe565b90828652600560205260ff6040872054166104d1576103f8916103e96103ef9260426040519765ffffffffffff60208a01917f2c5bf407a152624e0623143331337dcf2accc89ef424bb2933d8da41f8b3c9a3835260018060a01b03169a8b60408c01521698896060820152886080820152608081526103be60a0826122b4565b5190206103c9612a39565b906040519161190160f01b835260028301526022820152209236916122f0565b9061271a565b90929192612b55565b84546001600160a01b039081169116036104c2577f4e443fdf5f600aa1824253f4cb9e2d25d936bbeaccc24e01f024ada3157685c39160209185526005825260408520600160ff1982541617905560405161045281612285565b8181528281018681526001604080840191825287895260048652882092518354925166ffffffffffffff1990931665ffffffffffff919091161791151560301b60ff60301b169190911782555b51815460ff60381b191690151560381b60ff60381b16179055604051908152a280f35b63425b74c360e01b8452600484fd5b6348929ed960e01b8652600486fd5b8480fd5b50346101fd5760203660031901126101fd576104fe6121d2565b5f516020612ce45f395f51905f5254906001600160401b0360ff8360401c1615921680159081610607575b60011490816105fd575b1590816105f4575b506105e557610556908261054d6123c6565b6105b0576126b3565b61055d5780f35b60ff60401b195f516020612ce45f395f51905f5254165f516020612ce45f395f51905f52557fc7f505b2f371ae2175ee4913f4499e1f2633a7b5936321eed1cdaeb6115181d2602060405160018152a180f35b6801000000000000000060ff60401b195f516020612ce45f395f51905f525416175f516020612ce45f395f51905f52556126b3565b63f92ee8a960e01b8352600483fd5b9050155f61053b565b303b159150610533565b839150610529565b50346101fd57806003193601126101fd576040516370a0823160e01b8152306004820152906020826024817f00000000000000000000000000000000000000000000000000000000000000006001600160a01b03165afa9081156102ec57906102b557602090604051908152f35b50346101fd5760a03660031901126101fd576106976121d2565b506106a06121e8565b506044356001600160401b0381116101fb576106c090369060040161222b565b50506064356001600160401b0381116101fb576106e190369060040161222b565b50506084356001600160401b0381116101fb576107029036906004016121fe565b505060405163bc197c8160e01b8152602090f35b50346101fd57806003193601126101fd57602060ff60035460a01c166040519015158152f35b50346101fd5760203660031901126101fd576060906040906001600160a01b036107646121d2565b1681526004602052205460ff6040519165ffffffffffff81168352818160301c161515602084015260381c1615156040820152f35b50346101fd5760603660031901126101fd576107b36121d2565b906044356001600160401b0381116101fb576107d39036906004016121fe565b906107dc612608565b825c6001600160a01b0316610821579082936107fc84935a9336916122f0565b916020835193019160243591f1156108115780f35b610819612699565b602081519101fd5b631906852360e21b8352600483fd5b50346101fd57806003193601126101fd576040517f00000000000000000000000000000000000000000000000000000000000000006001600160a01b03168152602090f35b50346101fd5760203660031901126101fd5761088f6121d2565b6108976125b2565b600380546001600160a01b0319166001600160a01b039290921691821790557f7459f7f9aac6fc4ca8cf3734456a89022a8afccd59e1789f17777ec2012f21ed8280a280f35b50346101fd57806003193601126101fd57506109266040516109006040826122b4565b60058152640352e302e360dc1b6020820152604051918291602083526020830190612326565b0390f35b50346101fd57806003193601126101fd576003546040516001600160a01b039091168152602090f35b50346101fd5760603660031901126101fd5761096d6121d2565b6109756121e8565b907ff5d1c4f8a8d5054a02aeb5f4b9cf4d744b1ca8f5e1e2fe032c828148a9b76a1a60206109a1612270565b926109aa6125b2565b6001600160a01b0316808652600482526040808720805466ff0000000000001916660100000000000017905551909365ffffffffffff906109ea83612285565b16808252828201878152600160408085019182526001600160a01b03909816808a526004865297892093518454925166ffffffffffffff1990931665ffffffffffff919091161791151560301b60ff60301b1691909117835590919051815460ff60381b191690151560381b60ff60381b16179055604051908152a380f35b50346101fd5760403660031901126101fd5780610a846121d2565b610a8c6125b2565b6003546001600160a01b031690813b15610afb57604051622f12a160e61b81526001600160a01b03909116600482015260248035908201529082908290604490829084905af18015610af057610adf5750f35b81610ae9916122b4565b6101fd5780f35b6040513d84823e3d90fd5b5050fd5b50346101fd57806003193601126101fd57610b186125b2565b60ff60a01b19600354166003557fc7df2b75c7a01b0385c6730ec65595eed6579aa91ae44927cc5b09b454faab436020604051838152a180f35b50346101fd5760403660031901126101fd57610b6c6121d2565b906024356001600160401b0381116101fb57610b8c9036906004016121fe565b90927f9b779b17422d0df92223018b32b4d1fa46e071723d6817e2486d003becc55f005c6112905760017f9b779b17422d0df92223018b32b4d1fa46e071723d6817e2486d003becc55f005d610be0612608565b6001600160a01b03168083526006602052604083205490939060ff161561128157816064849260405194859384926305a9e04760e51b845230600485015260406024850152816044850152848401378181018301859052601f01601f19168101030181865afa8015610af057829083928491610fb7575b50805115610fa857835c6001600160a01b03169182610e9f575b845b8451811015610d21576001600160a01b03610c8e828761244f565b5151166001600160a01b036020610ca5848961244f565b510151166040610cb5848961244f565b51015190610cc482828561294d565b15610cd5575b505050600101610c73565b610cdf818461299a565b15610d0d5790610cef91836129fe565b15610cfb578080610cca565b635274afe760e01b8752600452602486fd5b635274afe760e01b89526004839052602489fd5b5084929386845b8451811015610d7f5785806001600160a01b03610d45848961244f565b5151166020610d54858a61244f565b510151906040610d64868b61244f565b510151915a9160208451940192f11561081157600101610d28565b5090849186835b8351811015610e22576001600160a01b03610da1828661244f565b5151166001600160a01b036020610db8848861244f565b51015116610dc787828461294d565b15610dd7575b5050600101610d86565b610de1818361299a565b15610e0e5786610df191836129fe565b15610dfc5780610dcd565b635274afe760e01b8652600452602485fd5b635274afe760e01b87526004829052602487fd5b84838360408901516007811015610e8b5760207fd92962b19f0852ffc8dba12fcc98b6487245aab4ea9c728ab9a0d06ac458b35c91610e64604051809261242e565ba3807f9b779b17422d0df92223018b32b4d1fa46e071723d6817e2486d003becc55f005d80f35b634e487b7160e01b84526021600452602484fd5b60035460ff8160a01c16610f99578382526001600160a01b0316803b15610f9557604080516322d70d5160e11b815283516001600160a01b0390811660048301526020850151166024820152908301519091879183916101049183918591610f0b90604485019061242e565b60608801516001600160a01b039081166064850152608089015116608484015260a088015160a484015260c088015160ff1660c484015260e088015161ffff1660e48401525af18015610f8a57908691610f75575b5050845c6001600160a01b031916855d610c71565b81610f7f916122b4565b6104e057845f610f60565b6040513d88823e3d90fd5b8580fd5b63a5c373a960e01b8652600486fd5b633b3280b560e01b8452600484fd5b925050503d8083833e610fca81836122b4565b810190808203610140811261127d57610100136112795760405161010081018181106001600160401b03821117611265576040526110078261241a565b81526110156020830161241a565b6020820152604082015160078110156104e05760408201526110396060830161241a565b606082015261104a6080830161241a565b608082015260a082015160a082015260c082015160ff811681036104e05760c082015260e082015161ffff811681036104e05760e08201526101008201516001600160401b0381116104e05782019183601f840112156104e05782516110af81612403565b936110bd60405195866122b4565b8185526020606081870193028201019086821161121757602001915b81831061121b57505050610120810151906001600160401b038211610f95570183601f820112156104e05780519061111082612403565b9461111e60405196876122b4565b82865260208087019360051b830101918183116112175760208101935b83851061114f57505050505090915f610c57565b84516001600160401b0381116112135782016060818503601f190112611213576040519061117c82612285565b6111886020820161241a565b8252604081015160208301526060810151906001600160401b03821161120f5790602091010184601f8201121561120b5780516111c4816122d5565b916111d260405193846122b4565b818352866020838301011161120757918c6020838197959482809896018386015e83010152604082015281520194019361113b565b8c80fd5b8a80fd5b8b80fd5b8980fd5b8780fd5b60608388031261121757602060609160405161123681612285565b61123f8661241a565b815261124c83870161241a565b83820152604086015160408201528152019201916110d9565b634e487b7160e01b85526041600452602485fd5b8280fd5b8380fd5b632ee001f360e01b8352600483fd5b633ee5aeb560e01b8352600483fd5b50346101fd57806003193601126101fd57546040516001600160a01b039091168152602090f35b50346101fd5760403660031901126101fd576112e06121d2565b7f4e443fdf5f600aa1824253f4cb9e2d25d936bbeaccc24e01f024ada3157685c3602061130b61225b565b6113136125b2565b65ffffffffffff6040519161132783612285565b16808252828201868152600160408085019182526001600160a01b039097168089526004865296882093518454925166ffffffffffffff1990931665ffffffffffff919091161791151560301b60ff60301b1691909117835590919061049f565b50346101fd5760203660031901126101fd576113a26121d2565b6113aa6125b2565b6001600160a01b0316808252600460205260408220805466ff000000000000191666010000000000001790557f17c796fb82086b3c9effaec517342e5ca9ed8fd78c339137ec082f748ab60cbe8280a280f35b50346101fd57806003193601126101fd5761149d9061143b7f0000000000000000000000000000000000000000000000000000000000000000612754565b906114657f000000000000000000000000000000000000000000000000000000000000000061287d565b9060206114ab6040519361147983866122b4565b8385525f368137604051968796600f60f81b885260e08589015260e0880190612326565b908682036040880152612326565b904660608601523060808601528260a086015284820360c08601528080855193848152019401925b8281106114e257505050500390f35b8351855286955093810193928101926001016114d3565b50346101fd57806003193601126101fd577f00000000000000000000000000000000000000000000000000000000000000006001600160a01b031630036115515760206040515f516020612cc45f395f51905f528152f35b63703e46dd60e11b8152600490fd5b5060403660031901126101fd576115756121d2565b906024356001600160401b0381116101fb57366023820112156101fb576115a69036906024816004013591016122f0565b916001600160a01b037f000000000000000000000000000000000000000000000000000000000000000016308114908115611723575b50611714576115e96125b2565b6040516352d1902d60e01b8152926001600160a01b0382169190602085600481865afa809585966116e0575b5061162e57634c9c8ce360e01b84526004839052602484fd5b9091845f516020612cc45f395f51905f5281036116ce5750823b156116bc575f516020612cc45f395f51905f5280546001600160a01b031916821790557fbc7cd75a20ee27fd9adebab32041f755214dbc6bffa90cc0225b39da2e5c2d3b8480a28051156116a35761169f91612c37565b5080f35b5050346116ad5780f35b63b398979f60e01b8152600490fd5b634c9c8ce360e01b8452600452602483fd5b632a87526960e21b8552600452602484fd5b9095506020813d60201161170c575b816116fc602093836122b4565b810103126104e05751945f611615565b3d91506116ef565b63703e46dd60e11b8252600482fd5b5f516020612cc45f395f51905f52546001600160a01b0316141590505f6115dc565b50346101fd5760403660031901126101fd57806004356001600160a01b038116908190036117db576117756125b2565b7f00000000000000000000000000000000000000000000000000000000000000006001600160a01b031690813b15610afb57829160448392604051948593849263040b850f60e31b8452600484015260243560248401525af18015610af057610adf5750f35b50fd5b50346101fd576101c03660031901126101fd576117f96121d2565b61180161225b565b61012036604319011261127957610164356001600160401b03811161127d5761182e90369060040161222b565b929091610184356001600160401b038111610f955761185190369060040161222b565b906101a435916001600160401b038311611217573660238401121561121757878360040135956001600160401b0387116101fb576024850194602436918960061b0101116101fb5760207f4e443fdf5f600aa1824253f4cb9e2d25d936bbeaccc24e01f024ada3157685c3916040976118c86125b2565b6118d06125b2565b65ffffffffffff8951916118e383612285565b1680825283820186815260018b84019081526001600160a01b03909416808852600486529a90962091518254965166ffffffffffffff1990971665ffffffffffff919091161795151560301b60ff60301b1695909517815588949151815460ff60381b191690151560381b60ff60381b16179055604051908152a2875b878110156119ce576001906119798160051b8901612380565b6119816125b2565b828060a01b0316808b52600660205260408b208360ff198254161790557f85ff5d10aa202e69f691155a2050fed648b2d67f85e35d1279510cc4340237366020604051858152a201611960565b506003548896506001600160a01b031691823b15611c31578660405163210b7b0b60e01b815286600482015265ffffffffffff611a09612270565b1660248201526064356001600160801b0381168091036112795760448201526084356001600160801b03811680910361127957606482015260a4356001600160801b03811680910361127957608482015260c4356001600160801b0381168091036112795760a482015260e43561ffff81168091036112795760c48201526101043561ffff81168091036112795760e48201526101243580151580910361127957610104820152610144358015158091036112795761012482015281816101448183895af18015610af057611c35575b5050823b15611c315760405163c4e5339d60e01b8152600481018690526060602482015260648101839052879493929091608483019186905b808210611bfb575050508180869260016044830152038183865af1908115611bf0578491611bdb575b505b858110611b48578380f35b611b5b611b568288866123f3565b612380565b6020611b688389876123f3565b0135833b15610f95576040516382f40f8d60e01b8152600481018890526001600160a01b0390921660248301526044820152848160648183875af1908115611bd0578591611bbb575b5050600101611b3d565b81611bc5916122b4565b61127d578388611bb1565b6040513d87823e3d90fd5b81611be5916122b4565b611279578287611b3b565b6040513d86823e3d90fd5b91939495969290925083359060018060a01b03821680920361120b57602081600193829352019401920189969594939291611b12565b8680fd5b81611c3f916122b4565b611c31578688611ad9565b505f3660031901126102e0577f00000000000000000000000000000000000000000000000000000000000000006001600160a01b0316803b156102e0575f6024916040519283809263b760faf960e01b825230600483015234905af18015611cc057611cb4575080f35b61001a91505f906122b4565b6040513d5f823e3d90fd5b346102e05760403660031901126102e057611ce46121d2565b611cec6121e8565b5f516020612ce45f395f51905f5254916001600160401b0360ff8460401c1615931680159081611dfb575b6001149081611df1575b159081611de8575b50611dd957611d3b908361054d6123c6565b600380546001600160a01b0319166001600160a01b0392909216918217905560405191907f7459f7f9aac6fc4ca8cf3734456a89022a8afccd59e1789f17777ec2012f21ed5f80a2611d8957005b60207fc7f505b2f371ae2175ee4913f4499e1f2633a7b5936321eed1cdaeb6115181d29160ff60401b195f516020612ce45f395f51905f5254165f516020612ce45f395f51905f525560018152a1005b63f92ee8a960e01b5f5260045ffd5b90501584611d29565b303b159150611d21565b849150611d17565b346102e05760203660031901126102e0576004356001600160401b0381116102e057611e3390369060040161222b565b611e3b612608565b5f5c6001600160a01b0316611ef6575f5b818110611e5557005b5f80611e65611b5684868861234a565b611e9a6020611e7586888a61234a565b0135611e8f611e8587898b61234a565b6040810190612394565b92905a9336916122f0565b9260208451940192f115611eb057600101611e4c565b60018203611ec057610819612699565b611ec8612699565b90611ef2604051928392635a15467560e01b84526004840152604060248401526044830190612326565b0390fd5b631906852360e21b5f5260045ffd5b346102e05760403660031901126102e057611f1e6121d2565b602435908115158092036102e05760207f85ff5d10aa202e69f691155a2050fed648b2d67f85e35d1279510cc43402373691611f586125b2565b60018060a01b031692835f526006825260405f2060ff1981541660ff8316179055604051908152a2005b346102e0575f3660031901126102e057611f9a6125b2565b6003805460ff60a01b1916600160a01b179055604051600181527fc7df2b75c7a01b0385c6730ec65595eed6579aa91ae44927cc5b09b454faab4390602090a1005b346102e05760603660031901126102e0576004356001600160401b0381116102e05761012060031982360301126102e0576044357f00000000000000000000000000000000000000000000000000000000000000006001600160a01b0316330361209d5761205260209260243590600401612463565b9080612062575b50604051908152f35b5f80808093335af1503d15612098573d61207b816122d5565b9061208960405192836122b4565b81525f833d92013e5b82612059565b612092565b60405162461bcd60e51b815260206004820152601c60248201527f6163636f756e743a206e6f742066726f6d20456e747279506f696e74000000006044820152606490fd5b346102e05760803660031901126102e0576120fb6121d2565b506121046121e8565b506064356001600160401b0381116102e0576121249036906004016121fe565b5050604051630a85bd0160e11b8152602090f35b346102e05760203660031901126102e0576004355f526005602052602060ff60405f2054166040519015158152f35b346102e05760203660031901126102e0576004359063ffffffff60e01b82168092036102e057602091630a85bd0160e11b81149081156121c1575b81156121b0575b5015158152f35b6301ffc9a760e01b149050836121a9565b630271189760e51b811491506121a2565b600435906001600160a01b03821682036102e057565b602435906001600160a01b03821682036102e057565b9181601f840112156102e0578235916001600160401b0383116102e057602083818601950101116102e057565b9181601f840112156102e0578235916001600160401b0383116102e0576020808501948460051b0101116102e057565b6024359065ffffffffffff821682036102e057565b6044359065ffffffffffff821682036102e057565b606081019081106001600160401b038211176122a057604052565b634e487b7160e01b5f52604160045260245ffd5b90601f801991011681019081106001600160401b038211176122a057604052565b6001600160401b0381116122a057601f01601f191660200190565b9291926122fc826122d5565b9161230a60405193846122b4565b8294818452818301116102e0578281602093845f960137010152565b805180835260209291819084018484015e5f828201840152601f01601f1916010190565b919081101561236c5760051b81013590605e19813603018212156102e0570190565b634e487b7160e01b5f52603260045260245ffd5b356001600160a01b03811681036102e05790565b903590601e19813603018212156102e057018035906001600160401b0382116102e0576020019181360383136102e057565b60016001600160401b03195f516020612ce45f395f51905f525416175f516020612ce45f395f51905f5255565b919081101561236c5760061b0190565b6001600160401b0381116122a05760051b60200190565b51906001600160a01b03821682036102e057565b90600782101561243b5752565b634e487b7160e01b5f52602160045260245ffd5b805182101561236c5760209160051b010190565b61247290610100810190612394565b9091604282036125aa57811561236c577f19457468657265756d205369676e6564204d6573736167653a0a3332000000005f52601c52603c5f20816001116102e0576103e96124c99236905f1901600186016122f0565b50600481939293101561243b5761256f573560f81c1561258d576001600160a01b03165f8181526004602052604090819020815192919061250984612285565b549265ffffffffffff8416815260ff8460301c1615159081602082015260ff8560381c1615908115938491015291612585575b508015612576575b61256f576bffffffffffffffffffffffff60a01b5f5c16175f5d60a01b65ffffffffffff60a01b1690565b5050600190565b5060ff60035460a01c16612544565b90505f61253c565b5f546001600160a01b039182169116036125a5575f90565b600190565b505050600190565b5f546001600160a01b0316331480156125ff575b156125cd57565b60405162461bcd60e51b815260206004820152600a60248201526937b7363c9037bbb732b960b11b6044820152606490fd5b503033146125c6565b337f00000000000000000000000000000000000000000000000000000000000000006001600160a01b0316148015612686575b1561264257565b606460405162461bcd60e51b815260206004820152602060248201527f6163636f756e743a206e6f74204f776e6572206f7220456e747279506f696e746044820152fd5b505f546001600160a01b0316331461263b565b3d604051906020818301016040528082525f602083013e90565b5f80546001600160a01b0319166001600160a01b039283169081178255917f000000000000000000000000000000000000000000000000000000000000000016907f47e55c76e7a6f1fd8996a1da8008c1ea29699cca35e7bcd057f2dec313b6e5de9080a3565b815191906041830361274a576127439250602082015190606060408401519301515f1a90612bb5565b9192909190565b50505f9160029190565b60ff811461279a5760ff811690601f821161278b57604051916127786040846122b4565b6020808452838101919036833783525290565b632cd44ac360e21b5f5260045ffd5b506040515f6001548060011c9160018216918215612873575b60208410831461285f57838552849290811561284057506001146127e1575b6127de925003826122b4565b90565b5060015f90815290917fb10e2d527612073b26eecdfd717e6a320cf44b4afac2b0732d9fcbe2b7fa0cf65b8183106128245750509060206127de928201016127d2565b602091935080600191548385880101520191019091839261280c565b602092506127de94915060ff191682840152151560051b8201016127d2565b634e487b7160e01b5f52602260045260245ffd5b92607f16926127b3565b60ff81146128a15760ff811690601f821161278b57604051916127786040846122b4565b506040515f6002548060011c9160018216918215612943575b60208410831461285f57838552849290811561284057506001146128e4576127de925003826122b4565b5060025f90815290917f405787fa12a823e0f2b7631cc41b3ba8828b3321ca811111fa75cd3aa3bb5ace5b8183106129275750509060206127de928201016127d2565b602091935080600191548385880101520191019091839261290f565b92607f16926128ba565b92916040519163095ea7b360e01b5f5260018060a01b031660045260245260205f60448180875af19260015f5114841615612989575b50604052565b3d15903b151516909216915f612983565b60405163095ea7b360e01b5f9081526001600160a01b03909316600452602483905290929160209060448180875af19260015f51148416156129dc5750604052565b600184929415166129f5573b15153d151616915f612983565b833d5f823e3d90fd5b92916040519163095ea7b360e01b5f5260018060a01b031660045260245260205f60448180875af19260015f51148416156129dc5750604052565b307f00000000000000000000000000000000000000000000000000000000000000006001600160a01b03161480612b2c575b15612a94577f000000000000000000000000000000000000000000000000000000000000000090565b60405160208101907f8b73c3c69bb8fe3d512ecc4cf759cc79239f7b179b0ffacaa9a75d522b39400f82527f000000000000000000000000000000000000000000000000000000000000000060408201527f000000000000000000000000000000000000000000000000000000000000000060608201524660808201523060a082015260a08152612b2660c0826122b4565b51902090565b507f00000000000000000000000000000000000000000000000000000000000000004614612a6b565b600481101561243b5780612b67575050565b60018103612b7e5763f645eedf60e01b5f5260045ffd5b60028103612b99575063fce698f760e01b5f5260045260245ffd5b600314612ba35750565b6335e2f38360e21b5f5260045260245ffd5b91907f7fffffffffffffffffffffffffffffff5d576e7357a4501ddfe92f46681b20a08411612c2c579160209360809260ff5f9560405194855216868401526040830152606082015282805260015afa15611cc0575f516001600160a01b03811615612c2257905f905f90565b505f906001905f90565b5050505f9160039190565b905f8091602081519101845af48080612cb0575b15612c6b5750506040513d81523d5f602083013e60203d82010160405290565b15612c9057639996b31560e01b5f9081526001600160a01b0391909116600452602490fd5b3d15612ca1576040513d5f823e3d90fd5b63d6bda27560e01b5f5260045ffd5b503d151580612c4b5750813b1515612c4b56fe360894a13ba1a3210667c828492db98dca3e2076cc3735a920a3ca505d382bbcf0c57e16840df040f15088dc2f81fe391c3923bec73e23a9662efc9c229c6a00a2646970667358221220f446c5090864432efcfd26bb3d2c5ef67c2b419e63c5aed68c5eb99fc2dce8b464736f6c634300081c0033f0c57e16840df040f15088dc2f81fe391c3923bec73e23a9662efc9c229c6a00",
  "linkReferences": {},
  "deployedLinkReferences": {},
  "immutableReferences": {
    "15580": [
      {
        "length": 32,
        "start": 230
      },
      {
        "length": 32,
        "start": 579
      },
      {
        "length": 32,
        "start": 894
      }
    ],
    "15582": [
      {
        "length": 32,
        "start": 93
      },
      {
        "length": 32,
        "start": 481
      },
      {
        "length": 32,
        "start": 805
      }
    ]
  },
  "inputSourceName": "project/contracts/dolfin/DolfinAccountFactory.sol",
  "buildInfoId": "solc-0_8_28-55477428d6a0faeda7297d30379799db7d47ef31"
}