{
  "_format": "hh3-artifact-1",
  "contractName": "DolfinAccount",
  "sourceName": "contracts/DolfinAccount.sol",
  "abi": [
    {
      "inputs": [],
      "name": "AlreadyWhitelisted",
      "type": "error"
    },
    {
      "inputs": [
        {
          "internalType": "uint256",
          "name": "index",
          "type": "uint256"
        },
        {
          "internalType": "bytes",
          "name": "returnData",
          "type": "bytes"
        }
      ],
      "name": "CallFailed",
      "type": "error"
    },
    {
      "inputs": [],
      "name": "NotWhitelisted",
      "type": "error"
    },
    {
      "inputs": [],
      "name": "UnauthorizedCaller",
      "type": "error"
    },
    {
      "anonymous": false,
      "inputs": [
        {
          "indexed": true,
          "internalType": "uint256",
          "name": "index",
          "type": "uint256"
        },
        {
          "indexed": true,
          "internalType": "address",
          "name": "to",
          "type": "address"
        },
        {
          "indexed": false,
          "internalType": "uint256",
          "name": "value",
          "type": "uint256"
        },
        {
          "indexed": false,
          "internalType": "bytes",
          "name": "data",
          "type": "bytes"
        }
      ],
      "name": "CallExecuted",
      "type": "event"
    },
    {
      "anonymous": false,
      "inputs": [
        {
          "indexed": true,
          "internalType": "address",
          "name": "caller",
          "type": "address"
        }
      ],
      "name": "CallerRemovedFromWhitelist",
      "type": "event"
    },
    {
      "anonymous": false,
      "inputs": [
        {
          "indexed": true,
          "internalType": "address",
          "name": "caller",
          "type": "address"
        }
      ],
      "name": "CallerWhitelisted",
      "type": "event"
    },
    {
      "stateMutability": "payable",
      "type": "fallback"
    },
    {
      "inputs": [
        {
          "internalType": "address",
          "name": "caller",
          "type": "address"
        }
      ],
      "name": "addToWhitelist",
      "outputs": [],
      "stateMutability": "nonpayable",
      "type": "function"
    },
    {
      "inputs": [
        {
          "components": [
            {
              "internalType": "address",
              "name": "to",
              "type": "address"
            },
            {
              "internalType": "uint256",
              "name": "value",
              "type": "uint256"
            },
            {
              "internalType": "bytes",
              "name": "data",
              "type": "bytes"
            }
          ],
          "internalType": "struct DolfinAccount.Call[]",
          "name": "calls",
          "type": "tuple[]"
        }
      ],
      "name": "execute",
      "outputs": [],
      "stateMutability": "payable",
      "type": "function"
    },
    {
      "inputs": [
        {
          "components": [
            {
              "internalType": "address",
              "name": "to",
              "type": "address"
            },
            {
              "internalType": "uint256",
              "name": "value",
              "type": "uint256"
            },
            {
              "internalType": "bytes",
              "name": "data",
              "type": "bytes"
            }
          ],
          "internalType": "struct DolfinAccount.Call[]",
          "name": "calls",
          "type": "tuple[]"
        }
      ],
      "name": "executeDirect",
      "outputs": [],
      "stateMutability": "payable",
      "type": "function"
    },
    {
      "inputs": [],
      "name": "initialize",
      "outputs": [],
      "stateMutability": "nonpayable",
      "type": "function"
    },
    {
      "inputs": [
        {
          "internalType": "address",
          "name": "caller",
          "type": "address"
        }
      ],
      "name": "isWhitelisted",
      "outputs": [
        {
          "internalType": "bool",
          "name": "",
          "type": "bool"
        }
      ],
      "stateMutability": "view",
      "type": "function"
    },
    {
      "inputs": [
        {
          "internalType": "address",
          "name": "caller",
          "type": "address"
        }
      ],
      "name": "removeFromWhitelist",
      "outputs": [],
      "stateMutability": "nonpayable",
      "type": "function"
    },
    {
      "stateMutability": "payable",
      "type": "receive"
    }
  ],
  "bytecode": "0x6080604052348015600e575f5ffd5b506107eb8061001c5f395ff3fe608060405260043610610054575f3560e01c80633af32abf146100565780633f707e6b146100895780638129fc1c1461009c5780638ab1d681146100a7578063b6e0b5ae146100c6578063e43252d7146100d9575b005b348015610061575f5ffd5b506100756100703660046105f6565b6100f8565b604051901515815260200160405180910390f35b610054610097366004610623565b610122565b348015610054575f5ffd5b3480156100b2575f5ffd5b506100546100c13660046105f6565b610179565b6100546100d4366004610623565b61024c565b3480156100e4575f5ffd5b506100546100f33660046105f6565b61029e565b5f610101610375565b6001600160a01b039092165f90815260209290925250604090205460ff1690565b5f61012b610375565b905033301480159061014c5750335f9081526020829052604090205460ff16155b1561016a57604051635c427cd960e01b815260040160405180910390fd5b61017483836103d5565b505050565b33301461019957604051635c427cd960e01b815260040160405180910390fd5b5f6101a2610375565b600181015490915060ff16156101cb57604051635c427cd960e01b815260040160405180910390fd5b6001600160a01b0382165f9081526020829052604090205460ff1661020357604051630b094f2760e31b815260040160405180910390fd5b6001600160a01b0382165f81815260208390526040808220805460ff19169055517fdef729f161d46119e1fe65923b8598af026c100847a180220c30a30d2cddd5809190a25050565b33301461026c57604051635c427cd960e01b815260040160405180910390fd5b5f610275610375565b600181015490915060ff161561016a57604051635c427cd960e01b815260040160405180910390fd5b3330146102be57604051635c427cd960e01b815260040160405180910390fd5b5f6102c7610375565b600181015490915060ff16156102f057604051635c427cd960e01b815260040160405180910390fd5b6001600160a01b0382165f9081526020829052604090205460ff16156103295760405163b73e95e160e01b815260040160405180910390fd5b6001600160a01b0382165f81815260208390526040808220805460ff19166001179055517ff3ffadc9e9649124b255960f6392f1df28383cd27442f172a2888e4c73f8cde39190a25050565b5f8060ff196103a460017e8582015d1cf9da6eeb3c0b08d45a008a31c2497f8639c9758670a1b4ad2d9a610694565b6040516020016103b691815260200190565b60408051601f1981840301815291905280516020909101201692915050565b5f6103de610375565b6001808201805460ff1916909117905590505f5b828110156105e6575f5f85858481811061040e5761040e6106b9565b905060200281019061042091906106cd565b61042e9060208101906105f6565b6001600160a01b0316868685818110610449576104496106b9565b905060200281019061045b91906106cd565b60200135878786818110610471576104716106b9565b905060200281019061048391906106cd565b6104919060408101906106eb565b60405161049f929190610735565b5f6040518083038185875af1925050503d805f81146104d9576040519150601f19603f3d011682016040523d82523d5f602084013e6104de565b606091505b50915091508161050e578281604051635c0dee5d60e01b8152600401610505929190610744565b60405180910390fd5b858584818110610520576105206106b9565b905060200281019061053291906106cd565b6105409060208101906105f6565b6001600160a01b0316837f22a3846775273ba56e132ad3a116027d04ef2e701d0aab74bd1977cbea2a921588888781811061057d5761057d6106b9565b905060200281019061058f91906106cd565b602001358989888181106105a5576105a56106b9565b90506020028101906105b791906106cd565b6105c59060408101906106eb565b6040516105d493929190610780565b60405180910390a350506001016103f2565b50600101805460ff191690555050565b5f60208284031215610606575f5ffd5b81356001600160a01b038116811461061c575f5ffd5b9392505050565b5f5f60208385031215610634575f5ffd5b823567ffffffffffffffff81111561064a575f5ffd5b8301601f8101851361065a575f5ffd5b803567ffffffffffffffff811115610670575f5ffd5b8560208260051b8401011115610684575f5ffd5b6020919091019590945092505050565b818103818111156106b357634e487b7160e01b5f52601160045260245ffd5b92915050565b634e487b7160e01b5f52603260045260245ffd5b5f8235605e198336030181126106e1575f5ffd5b9190910192915050565b5f5f8335601e19843603018112610700575f5ffd5b83018035915067ffffffffffffffff82111561071a575f5ffd5b60200191503681900382131561072e575f5ffd5b9250929050565b818382375f9101908152919050565b828152604060208201525f82518060408401528060208501606085015e5f606082850101526060601f19601f8301168401019150509392505050565b83815260406020820152816040820152818360608301375f818301606090810191909152601f909201601f191601019291505056fea26469706673582212209ddc1bc92160fa3c86824101d00425c64c32cf34138006ea2283bb9459ace20d64736f6c634300081c0033",
  "linkReferences": {},
  "deployedLinkReferences": {},
  "immutableReferences": {},
  "inputSourceName": "project/contracts/DolfinAccount.sol",
  "buildInfoId": "solc-0_8_28-0563ec10fab188c5b4187342fd5d1401842efdd3"
}