{
  "_format": "hh3-artifact-1",
  "contractName": "DolfinAccount",
  "sourceName": "contracts/DolfinAccount.sol",
  "abi": [
    {
      "inputs": [],
      "stateMutability": "nonpayable",
      "type": "constructor"
    },
    {
      "inputs": [
        {
          "internalType": "uint256",
          "name": "index",
          "type": "uint256"
        },
        {
          "internalType": "bytes",
          "name": "returnData",
          "type": "bytes"
        }
      ],
      "name": "CallFailed",
      "type": "error"
    },
    {
      "inputs": [],
      "name": "ECDSAInvalidSignature",
      "type": "error"
    },
    {
      "inputs": [
        {
          "internalType": "uint256",
          "name": "length",
          "type": "uint256"
        }
      ],
      "name": "ECDSAInvalidSignatureLength",
      "type": "error"
    },
    {
      "inputs": [
        {
          "internalType": "bytes32",
          "name": "s",
          "type": "bytes32"
        }
      ],
      "name": "ECDSAInvalidSignatureS",
      "type": "error"
    },
    {
      "inputs": [],
      "name": "InvalidShortString",
      "type": "error"
    },
    {
      "inputs": [],
      "name": "InvalidSignature",
      "type": "error"
    },
    {
      "inputs": [
        {
          "internalType": "string",
          "name": "str",
          "type": "string"
        }
      ],
      "name": "StringTooLong",
      "type": "error"
    },
    {
      "inputs": [],
      "name": "UnauthorizedCaller",
      "type": "error"
    },
    {
      "anonymous": false,
      "inputs": [
        {
          "indexed": true,
          "internalType": "uint256",
          "name": "index",
          "type": "uint256"
        },
        {
          "indexed": true,
          "internalType": "address",
          "name": "to",
          "type": "address"
        },
        {
          "indexed": false,
          "internalType": "uint256",
          "name": "value",
          "type": "uint256"
        },
        {
          "indexed": false,
          "internalType": "bytes",
          "name": "data",
          "type": "bytes"
        }
      ],
      "name": "CallExecuted",
      "type": "event"
    },
    {
      "anonymous": false,
      "inputs": [],
      "name": "EIP712DomainChanged",
      "type": "event"
    },
    {
      "stateMutability": "payable",
      "type": "fallback"
    },
    {
      "inputs": [],
      "name": "CALL_TYPEHASH",
      "outputs": [
        {
          "internalType": "bytes32",
          "name": "",
          "type": "bytes32"
        }
      ],
      "stateMutability": "view",
      "type": "function"
    },
    {
      "inputs": [],
      "name": "EXECUTE_TYPEHASH",
      "outputs": [
        {
          "internalType": "bytes32",
          "name": "",
          "type": "bytes32"
        }
      ],
      "stateMutability": "view",
      "type": "function"
    },
    {
      "inputs": [],
      "name": "domainSeparator",
      "outputs": [
        {
          "internalType": "bytes32",
          "name": "",
          "type": "bytes32"
        }
      ],
      "stateMutability": "view",
      "type": "function"
    },
    {
      "inputs": [],
      "name": "eip712Domain",
      "outputs": [
        {
          "internalType": "bytes1",
          "name": "fields",
          "type": "bytes1"
        },
        {
          "internalType": "string",
          "name": "name",
          "type": "string"
        },
        {
          "internalType": "string",
          "name": "version",
          "type": "string"
        },
        {
          "internalType": "uint256",
          "name": "chainId",
          "type": "uint256"
        },
        {
          "internalType": "address",
          "name": "verifyingContract",
          "type": "address"
        },
        {
          "internalType": "bytes32",
          "name": "salt",
          "type": "bytes32"
        },
        {
          "internalType": "uint256[]",
          "name": "extensions",
          "type": "uint256[]"
        }
      ],
      "stateMutability": "view",
      "type": "function"
    },
    {
      "inputs": [
        {
          "components": [
            {
              "internalType": "address",
              "name": "to",
              "type": "address"
            },
            {
              "internalType": "uint256",
              "name": "value",
              "type": "uint256"
            },
            {
              "internalType": "bytes",
              "name": "data",
              "type": "bytes"
            }
          ],
          "internalType": "struct DolfinAccount.Call[]",
          "name": "calls",
          "type": "tuple[]"
        },
        {
          "internalType": "bytes",
          "name": "signature",
          "type": "bytes"
        }
      ],
      "name": "execute",
      "outputs": [],
      "stateMutability": "payable",
      "type": "function"
    },
    {
      "inputs": [
        {
          "components": [
            {
              "internalType": "address",
              "name": "to",
              "type": "address"
            },
            {
              "internalType": "uint256",
              "name": "value",
              "type": "uint256"
            },
            {
              "internalType": "bytes",
              "name": "data",
              "type": "bytes"
            }
          ],
          "internalType": "struct DolfinAccount.Call[]",
          "name": "calls",
          "type": "tuple[]"
        }
      ],
      "name": "executeDirect",
      "outputs": [],
      "stateMutability": "payable",
      "type": "function"
    },
    {
      "inputs": [
        {
          "components": [
            {
              "internalType": "address",
              "name": "to",
              "type": "address"
            },
            {
              "internalType": "uint256",
              "name": "value",
              "type": "uint256"
            },
            {
              "internalType": "bytes",
              "name": "data",
              "type": "bytes"
            }
          ],
          "internalType": "struct DolfinAccount.Call[]",
          "name": "calls",
          "type": "tuple[]"
        },
        {
          "internalType": "uint256",
          "name": "nonce",
          "type": "uint256"
        }
      ],
      "name": "getDigest",
      "outputs": [
        {
          "internalType": "bytes32",
          "name": "",
          "type": "bytes32"
        }
      ],
      "stateMutability": "view",
      "type": "function"
    },
    {
      "inputs": [
        {
          "internalType": "address",
          "name": "account",
          "type": "address"
        }
      ],
      "name": "getNonce",
      "outputs": [
        {
          "internalType": "uint256",
          "name": "",
          "type": "uint256"
        }
      ],
      "stateMutability": "view",
      "type": "function"
    },
    {
      "stateMutability": "payable",
      "type": "receive"
    }
  ],
  "bytecode": "0x610160604052348015610010575f5ffd5b50604080518082018252600d81526c111bdb199a5b9058d8dbdd5b9d609a1b602080830191909152825180840190935260018352603160f81b9083015290610058825f610101565b61012052610067816001610101565b61014052815160208084019190912060e052815190820120610100524660a0526100f360e05161010051604080517f8b73c3c69bb8fe3d512ecc4cf759cc79239f7b179b0ffacaa9a75d522b39400f60208201529081019290925260608201524660808201523060a08201525f9060c00160405160208183030381529060405280519060200120905090565b60805250503060c052610323565b5f60208351101561011c5761011583610133565b905061012d565b816101278482610211565b5060ff90505b92915050565b5f5f829050601f81511115610166578260405163305a27a960e01b815260040161015d91906102cb565b60405180910390fd5b805161017182610300565b179392505050565b634e487b7160e01b5f52604160045260245ffd5b600181811c908216806101a157607f821691505b6020821081036101bf57634e487b7160e01b5f52602260045260245ffd5b50919050565b601f82111561020c57805f5260205f20601f840160051c810160208510156101ea5750805b601f840160051c820191505b81811015610209575f81556001016101f6565b50505b505050565b81516001600160401b0381111561022a5761022a610179565b61023e81610238845461018d565b846101c5565b6020601f821160018114610270575f83156102595750848201515b5f19600385901b1c1916600184901b178455610209565b5f84815260208120601f198516915b8281101561029f578785015182556020948501946001909201910161027f565b50848210156102bc57868401515f19600387901b60f8161c191681555b50505050600190811b01905550565b602081525f82518060208401528060208501604085015e5f604082850101526040601f19601f83011684010191505092915050565b805160208083015191908110156101bf575f1960209190910360031b1b16919050565b60805160a05160c05160e05161010051610120516101405161104d6103745f395f61072a01525f6106fe01525f61082901525f61080101525f61075c01525f61078601525f6107b0015261104d5ff3fe608060405260043610610077575f3560e01c80636171d1c91161004a5780636171d1c91461013057806384b0196e14610143578063b6e0b5ae1461016a578063f698da251461017d57005b80631a912f3e146100795780632d0335ab146100bf57806349acb1cf146100de57806360d2f33d146100fd575b005b348015610084575f5ffd5b506100ac7f9085b19ea56248c94d86174b3784cfaaa8673d1041d6441f61ff52752dac848381565b6040519081526020015b60405180910390f35b3480156100ca575f5ffd5b506100ac6100d9366004610c1e565b610191565b3480156100e9575f5ffd5b506100ac6100f8366004610c93565b6101b8565b348015610108575f5ffd5b506100ac7f738ac209243fbd09d23e109bb1137a2da39f7593026ec2c8339b3d4c36f129c481565b61007761013e366004610cdb565b6101cc565b34801561014e575f5ffd5b5061015761026e565b6040516100b69796959493929190610da2565b610077610178366004610e38565b6102b0565b348015610188575f5ffd5b506100ac6102de565b5f61019a6102ec565b6001600160a01b039092165f90815260209290925250604090205490565b5f6101c484848461034c565b949350505050565b33301461025e575f6101dd30610481565b90505f6101eb86868461034c565b90505f61022f85858080601f0160208091040260200160405190810160405280939291908181526020018383808284375f9201919091525086939250506104d29050565b90506001600160a01b038116301461025a57604051638baa579f60e01b815260040160405180910390fd5b5050505b61026884846104fc565b50505050565b5f6060805f5f5f606061027f6106f7565b610287610723565b604080515f80825260208201909252600f60f81b9b939a50919850469750309650945092509050565b3330146102d057604051635c427cd960e01b815260040160405180910390fd5b6102da82826104fc565b5050565b5f6102e7610750565b905090565b5f8060ff1961031b60017e8582015d1cf9da6eeb3c0b08d45a008a31c2497f8639c9758670a1b4ad2d9a610e9f565b60405160200161032d91815260200190565b60408051601f1981840301815291905280516020909101201692915050565b5f808367ffffffffffffffff81111561036757610367610e77565b604051908082528060200260200182016040528015610390578160200160208202803683370190505b5090505f5b848110156103ee576103c98686838181106103b2576103b2610eb2565b90506020028101906103c49190610ec6565b610879565b8282815181106103db576103db610eb2565b6020908102919091010152600101610395565b505f816040516020016104019190610ee4565b60408051601f1981840301815282825280516020918201207f738ac209243fbd09d23e109bb1137a2da39f7593026ec2c8339b3d4c36f129c4918401919091529082018190526060820186905291505f906080016040516020818303038152906040528051906020012090506104768161091c565b979650505050505050565b5f5f61048b6102ec565b6001600160a01b0384165f90815260208290526040902054925090506104b2826001610f19565b6001600160a01b039093165f908152602091909152604090209190915590565b5f5f5f5f6104e08686610948565b9250925092506104f08282610991565b50909150505b92915050565b5f5b818110156106f2575f5f84848481811061051a5761051a610eb2565b905060200281019061052c9190610ec6565b61053a906020810190610c1e565b6001600160a01b031685858581811061055557610555610eb2565b90506020028101906105679190610ec6565b6020013586868681811061057d5761057d610eb2565b905060200281019061058f9190610ec6565b61059d906040810190610f2c565b6040516105ab929190610f6f565b5f6040518083038185875af1925050503d805f81146105e5576040519150601f19603f3d011682016040523d82523d5f602084013e6105ea565b606091505b50915091508161061a578281604051635c0dee5d60e01b8152600401610611929190610f7e565b60405180910390fd5b84848481811061062c5761062c610eb2565b905060200281019061063e9190610ec6565b61064c906020810190610c1e565b6001600160a01b0316837f22a3846775273ba56e132ad3a116027d04ef2e701d0aab74bd1977cbea2a921587878781811061068957610689610eb2565b905060200281019061069b9190610ec6565b602001358888888181106106b1576106b1610eb2565b90506020028101906106c39190610ec6565b6106d1906040810190610f2c565b6040516106e093929190610f96565b60405180910390a350506001016104fe565b505050565b60606102e77f00000000000000000000000000000000000000000000000000000000000000005f610a49565b60606102e77f00000000000000000000000000000000000000000000000000000000000000006001610a49565b5f306001600160a01b037f0000000000000000000000000000000000000000000000000000000000000000161480156107a857507f000000000000000000000000000000000000000000000000000000000000000046145b156107d257507f000000000000000000000000000000000000000000000000000000000000000090565b6102e7604080517f8b73c3c69bb8fe3d512ecc4cf759cc79239f7b179b0ffacaa9a75d522b39400f60208201527f0000000000000000000000000000000000000000000000000000000000000000918101919091527f000000000000000000000000000000000000000000000000000000000000000060608201524660808201523060a08201525f9060c00160405160208183030381529060405280519060200120905090565b5f7f9085b19ea56248c94d86174b3784cfaaa8673d1041d6441f61ff52752dac84836108a86020840184610c1e565b60208401356108ba6040860186610f2c565b6040516108c8929190610f6f565b6040519081900381206108ff949392916020019384526001600160a01b039290921660208401526040830152606082015260800190565b604051602081830303815290604052805190602001209050919050565b5f6104f6610928610750565b8360405161190160f01b8152600281019290925260228201526042902090565b5f5f5f835160410361097f576020840151604085015160608601515f1a61097188828585610af2565b95509550955050505061098a565b505081515f91506002905b9250925092565b5f8260038111156109a4576109a4610fcb565b036109ad575050565b60018260038111156109c1576109c1610fcb565b036109df5760405163f645eedf60e01b815260040160405180910390fd5b60028260038111156109f3576109f3610fcb565b03610a145760405163fce698f760e01b815260048101829052602401610611565b6003826003811115610a2857610a28610fcb565b036102da576040516335e2f38360e21b815260048101829052602401610611565b606060ff8314610a6357610a5c83610bba565b90506104f6565b818054610a6f90610fdf565b80601f0160208091040260200160405190810160405280929190818152602001828054610a9b90610fdf565b8015610ae65780601f10610abd57610100808354040283529160200191610ae6565b820191905f5260205f20905b815481529060010190602001808311610ac957829003601f168201915b505050505090506104f6565b5f80807f7fffffffffffffffffffffffffffffff5d576e7357a4501ddfe92f46681b20a0841115610b2b57505f91506003905082610bb0565b604080515f808252602082018084528a905260ff891692820192909252606081018790526080810186905260019060a0016020604051602081039080840390855afa158015610b7c573d5f5f3e3d5ffd5b5050604051601f1901519150506001600160a01b038116610ba757505f925060019150829050610bb0565b92505f91508190505b9450945094915050565b60605f610bc683610bf7565b6040805160208082528183019092529192505f91906020820181803683375050509182525060208101929092525090565b5f60ff8216601f8111156104f657604051632cd44ac360e21b815260040160405180910390fd5b5f60208284031215610c2e575f5ffd5b81356001600160a01b0381168114610c44575f5ffd5b9392505050565b5f5f83601f840112610c5b575f5ffd5b50813567ffffffffffffffff811115610c72575f5ffd5b6020830191508360208260051b8501011115610c8c575f5ffd5b9250929050565b5f5f5f60408486031215610ca5575f5ffd5b833567ffffffffffffffff811115610cbb575f5ffd5b610cc786828701610c4b565b909790965060209590950135949350505050565b5f5f5f5f60408587031215610cee575f5ffd5b843567ffffffffffffffff811115610d04575f5ffd5b610d1087828801610c4b565b909550935050602085013567ffffffffffffffff811115610d2f575f5ffd5b8501601f81018713610d3f575f5ffd5b803567ffffffffffffffff811115610d55575f5ffd5b876020828401011115610d66575f5ffd5b949793965060200194505050565b5f81518084528060208401602086015e5f602082860101526020601f19601f83011685010191505092915050565b60ff60f81b8816815260e060208201525f610dc060e0830189610d74565b8281036040840152610dd28189610d74565b606084018890526001600160a01b038716608085015260a0840186905283810360c0850152845180825260208087019350909101905f5b81811015610e27578351835260209384019390920191600101610e09565b50909b9a5050505050505050505050565b5f5f60208385031215610e49575f5ffd5b823567ffffffffffffffff811115610e5f575f5ffd5b610e6b85828601610c4b565b90969095509350505050565b634e487b7160e01b5f52604160045260245ffd5b634e487b7160e01b5f52601160045260245ffd5b818103818111156104f6576104f6610e8b565b634e487b7160e01b5f52603260045260245ffd5b5f8235605e19833603018112610eda575f5ffd5b9190910192915050565b81515f90829060208501835b82811015610f0e578151845260209384019390910190600101610ef0565b509195945050505050565b808201808211156104f6576104f6610e8b565b5f5f8335601e19843603018112610f41575f5ffd5b83018035915067ffffffffffffffff821115610f5b575f5ffd5b602001915036819003821315610c8c575f5ffd5b818382375f9101908152919050565b828152604060208201525f6101c46040830184610d74565b83815260406020820152816040820152818360608301375f818301606090810191909152601f909201601f1916010192915050565b634e487b7160e01b5f52602160045260245ffd5b600181811c90821680610ff357607f821691505b60208210810361101157634e487b7160e01b5f52602260045260245ffd5b5091905056fea2646970667358221220a5cf1b41bb93b2c9b7bc6c95b01e8e9d0cc0ee940a7b37fa8d1368c21246150e64736f6c634300081c0033",
  "linkReferences": {},
  "deployedLinkReferences": {},
  "immutableReferences": {
    "3208": [
      {
        "length": 32,
        "start": 1968
      }
    ],
    "3210": [
      {
        "length": 32,
        "start": 1926
      }
    ],
    "3212": [
      {
        "length": 32,
        "start": 1884
      }
    ],
    "3214": [
      {
        "length": 32,
        "start": 2049
      }
    ],
    "3216": [
      {
        "length": 32,
        "start": 2089
      }
    ],
    "3219": [
      {
        "length": 32,
        "start": 1790
      }
    ],
    "3222": [
      {
        "length": 32,
        "start": 1834
      }
    ]
  },
  "inputSourceName": "project/contracts/DolfinAccount.sol",
  "buildInfoId": "solc-0_8_28-051fc1c4179d2ae109a2b446f4ec91e6dbc7f235"
}